:100000000C942A000C94DD020C94EE020C94470030
:100010000C9447000C9447000C9447000C94470044
:100020000C9447000C9447000C9447000C94470034
:100030000C9447000C9447000C9490020C944700D9
:100040000C9447000C9447000C9447000C94470014
:100050000C94470011241FBECFE5D4E0DEBFCDBF16
:1000600010E0A0E6B0E0E0EAF6E002C005900D92F4
:10007000A437B107D9F720E0A4E7B0E001C01D9292
:10008000A738B207E1F70E94F1000C944E030C94DC
:10009000000080FF02C0AC9A01C0AC9881FF02C092
:1000A000AD9A01C0AD9882FF02C0AE9A01C0AE9871
:1000B00083FF02C0AF9A01C0AF98AA9AAA9885EAB6
:1000C0009EE00197F1F700C000000895CF93C82F7C
:1000D000A89882958F700E9449008C2F0E94490039
:1000E000CF910895613021F481580E9466000895EF
:1000F000623021F481540E9466000895633021F437
:100100008D560E9466000895643019F48D520E9445
:1001100066000895A09AA19AA29AA49AA59AA69A6E
:10012000A79AA898AA988BED95E00197F1F700C0DF
:10013000000083E00E9449008BED95E00197F1F704
:1001400000C0000083E00E9449008BED95E001971C
:10015000F1F700C0000083E00E9449008BED95E0BC
:100160000197F1F700C0000082E00E94490088E298
:100170000E9466008CE00E94660086E00E94660095
:1001800080E80E9466000895CF93C82FA89A8295B0
:100190008F700E9449008C2F0E944900CF910895D2
:1001A0000F931F93CF93FC018081882379F08F01F7
:1001B0000F5F1F4FC0E00E94C400CF5FF801819124
:1001C0008F018111F8CFC53011F407C0C0E080E283
:1001D0000E94C400CF5FC530D1F7CF911F910F911E
:1001E00008958FE087BB8BB7806C8BBF85B78F601E
:1001F00085BF0E948A00C3E8D0E084E59AE3998332
:1002000088831A8261E081E00E947200CE010E9420
:10021000D00080E59AE3998388831A8261E08DE0BB
:100220000E947200CE010E94D0008FE496E4998370
:10023000888386E490E0909386008093850062E056
:1002400087E00E947200CE010E94D000329A3E9A4E
:10025000339A379A7894369AC1E00F2EFFE4AF2E86
:10026000F6E4BF2EF02D0F2EF5E8CF2EF0E0DF2EB6
:10027000F02D0F2EF6E4EF2EF12CF02D00E210E21F
:100280000F2EF8E48F2EF4E59F2EF02D80917E0046
:10029000833840F480917D008A3120F480917C0085
:1002A0008D3810F0C093780080917E00823850F431
:1002B00080917D00893130F480917C008C3810F47D
:1002C0001092780080917B00883020F480917A0031
:1002D000843010F0C093760080917B00873030F43A
:1002E00080917A00833010F410927600809179002A
:1002F000833038F0C093750080917900823028F007
:100300000BC080917900823018F41092750019C0EA
:1003100080917500813089F485E0E0E6F0E0A3E8A3
:10032000B0E001900D928A95E1F762E08DE00E94C5
:10033000720083E890E00E94D000809175008111E6
:1003400011C085E0E5E6F0E0A3E8B0E001900D9291
:100350008A95E1F762E08DE00E94720083E890E008
:100360000E94D00080917800813031F5C29AE3E894
:10037000F0E091828082128262E08C2F0E947200F3
:1003800083E890E00E94D00080917E004AE06FE711
:1003900070E090E00E9419036C2F83E00E947200CD
:1003A0008FE790E00E94D000109277008091760055
:1003B000882309F477C074C0811125C0C298809148
:1003C0007E004AE063E870E090E00E9419036C2F21
:1003D00083E00E94720083E890E00E94D000E3E88E
:1003E000F0E011830083128262E08C2F0E94720081
:1003F00083E890E00E94D000C0937700809176005F
:1004000081118AC009C080917600811149C0809114
:100410007700813009F046C080917B004AE06FE7A9
:1004200070E090E00E9419036C2F8FE00E94720030
:100430008FE790E00E94D000B1990FC0B092840085
:10044000A0928300F601F182E08262E087E00E94E0
:10045000720083E890E00E94D000809177008130A4
:1004600009F014CFB19B12CFFFEB24ED81E0F150E6
:1004700020408040E1F700C00000C39A85E0EAE632
:10048000F0E0A3E8B0E001900D928A95E1F762E018
:1004900087E00E94720083E890E00E94D000F6CED0
:1004A000813021F0809177008111F0CE80917B0026
:1004B0004AE06FE770E090E00E9419036C2F8FE034
:1004C0000E9472008FE790E00E94D000C398B19B19
:1004D00011C085E0EFE6F0E0A3E8B0E001900D92F6
:1004E0008A95E1F762E087E00E94720083E890E07D
:1004F0000E94D000B199CACEB0928400A09283002D
:10050000F601F182E08262E089E00E94720083E8F5
:1005100090E00E94D000BACE813009F0B7CEC6CFAD
:100520001F920F920FB60F9211242F938F939F93C8
:1005300084B125B190E0922B27B12234D1F028F478
:10054000203449F0213471F02FC0243401F1C0F07F
:10055000253421F129C09695879580937E0081E40A
:1005600087B922C09695879580937D0082E487B9EC
:100570001BC09695879580937C0083E487B914C04F
:100580009695879580937B0084E487B90DC09695F6
:10059000879580937A0085E487B906C096958795FC
:1005A0008093790080E487B9369A9F918F912F913B
:1005B0000F900FBE0F901F9018951F920F920FB6BD
:1005C0000F9211248F93C198C09881E0809374009A
:1005D0008F910F900FBE0F901F9018951F920F9242
:1005E0000FB60F9211242F938F939F93839B19C063
:1005F000B19917C0109274002FE58AEE90E0215057
:1006000080409040E1F700C00000C09A2FE58AEEDC
:1006100090E0215080409040E1F700C00000C19A76
:10062000C0989F918F912F910F900FBE0F901F90A8
:100630001895BB274A3031F4992322F4BDE29095F6
:1006400081959F4F0C942503BB27FB015527AA27B3
:10065000880F991FAA1FA41710F0A41B839550514F
:10066000B9F7A05DAA3308F0A95DA193009779F7C7
:10067000B111B1931192CB010C943E03DC01FC014A
:10068000672F71917723E1F7329704C07C916D93C6
:1006900070836291AE17BF07C8F30895F894FFCF37
:1006A0004F696C460020202020004C4F41440049F7
:0406B000646C650011
:00000001FF
